{
  "contractName": "MyNFT",
  "abi": [
    {
      "inputs": [],
      "stateMutability": "nonpayable",
      "type": "constructor"
    },
    {
      "anonymous": false,
      "inputs": [
        {
          "indexed": true,
          "internalType": "address",
          "name": "owner",
          "type": "address"
        },
        {
          "indexed": true,
          "internalType": "address",
          "name": "approved",
          "type": "address"
        },
        {
          "indexed": true,
          "internalType": "uint256",
          "name": "tokenId",
          "type": "uint256"
        }
      ],
      "name": "Approval",
      "type": "event"
    },
    {
      "anonymous": false,
      "inputs": [
        {
          "indexed": true,
          "internalType": "address",
          "name": "owner",
          "type": "address"
        },
        {
          "indexed": true,
          "internalType": "address",
          "name": "operator",
          "type": "address"
        },
        {
          "indexed": false,
          "internalType": "bool",
          "name": "approved",
          "type": "bool"
        }
      ],
      "name": "ApprovalForAll",
      "type": "event"
    },
    {
      "anonymous": false,
      "inputs": [
        {
          "indexed": true,
          "internalType": "address",
          "name": "from",
          "type": "address"
        },
        {
          "indexed": true,
          "internalType": "address",
          "name": "to",
          "type": "address"
        },
        {
          "indexed": true,
          "internalType": "uint256",
          "name": "tokenId",
          "type": "uint256"
        }
      ],
      "name": "Transfer",
      "type": "event"
    },
    {
      "inputs": [
        {
          "internalType": "address",
          "name": "to",
          "type": "address"
        },
        {
          "internalType": "uint256",
          "name": "tokenId",
          "type": "uint256"
        }
      ],
      "name": "approve",
      "outputs": [],
      "stateMutability": "nonpayable",
      "type": "function"
    },
    {
      "inputs": [
        {
          "internalType": "address",
          "name": "owner",
          "type": "address"
        }
      ],
      "name": "balanceOf",
      "outputs": [
        {
          "internalType": "uint256",
          "name": "",
          "type": "uint256"
        }
      ],
      "stateMutability": "view",
      "type": "function"
    },
    {
      "inputs": [
        {
          "internalType": "uint256",
          "name": "tokenId",
          "type": "uint256"
        }
      ],
      "name": "getApproved",
      "outputs": [
        {
          "internalType": "address",
          "name": "",
          "type": "address"
        }
      ],
      "stateMutability": "view",
      "type": "function"
    },
    {
      "inputs": [
        {
          "internalType": "address",
          "name": "owner",
          "type": "address"
        },
        {
          "internalType": "address",
          "name": "operator",
          "type": "address"
        }
      ],
      "name": "isApprovedForAll",
      "outputs": [
        {
          "internalType": "bool",
          "name": "",
          "type": "bool"
        }
      ],
      "stateMutability": "view",
      "type": "function"
    },
    {
      "inputs": [
        {
          "internalType": "uint256",
          "name": "",
          "type": "uint256"
        }
      ],
      "name": "items",
      "outputs": [
        {
          "internalType": "uint256",
          "name": "id",
          "type": "uint256"
        },
        {
          "internalType": "address",
          "name": "creator",
          "type": "address"
        },
        {
          "internalType": "string",
          "name": "url",
          "type": "string"
        }
      ],
      "stateMutability": "view",
      "type": "function"
    },
    {
      "inputs": [],
      "name": "name",
      "outputs": [
        {
          "internalType": "string",
          "name": "",
          "type": "string"
        }
      ],
      "stateMutability": "view",
      "type": "function"
    },
    {
      "inputs": [
        {
          "internalType": "uint256",
          "name": "tokenId",
          "type": "uint256"
        }
      ],
      "name": "ownerOf",
      "outputs": [
        {
          "internalType": "address",
          "name": "",
          "type": "address"
        }
      ],
      "stateMutability": "view",
      "type": "function"
    },
    {
      "inputs": [
        {
          "internalType": "address",
          "name": "from",
          "type": "address"
        },
        {
          "internalType": "address",
          "name": "to",
          "type": "address"
        },
        {
          "internalType": "uint256",
          "name": "tokenId",
          "type": "uint256"
        }
      ],
      "name": "safeTransferFrom",
      "outputs": [],
      "stateMutability": "nonpayable",
      "type": "function"
    },
    {
      "inputs": [
        {
          "internalType": "address",
          "name": "from",
          "type": "address"
        },
        {
          "internalType": "address",
          "name": "to",
          "type": "address"
        },
        {
          "internalType": "uint256",
          "name": "tokenId",
          "type": "uint256"
        },
        {
          "internalType": "bytes",
          "name": "_data",
          "type": "bytes"
        }
      ],
      "name": "safeTransferFrom",
      "outputs": [],
      "stateMutability": "nonpayable",
      "type": "function"
    },
    {
      "inputs": [
        {
          "internalType": "address",
          "name": "operator",
          "type": "address"
        },
        {
          "internalType": "bool",
          "name": "approved",
          "type": "bool"
        }
      ],
      "name": "setApprovalForAll",
      "outputs": [],
      "stateMutability": "nonpayable",
      "type": "function"
    },
    {
      "inputs": [
        {
          "internalType": "bytes4",
          "name": "interfaceId",
          "type": "bytes4"
        }
      ],
      "name": "supportsInterface",
      "outputs": [
        {
          "internalType": "bool",
          "name": "",
          "type": "bool"
        }
      ],
      "stateMutability": "view",
      "type": "function"
    },
    {
      "inputs": [],
      "name": "symbol",
      "outputs": [
        {
          "internalType": "string",
          "name": "",
          "type": "string"
        }
      ],
      "stateMutability": "view",
      "type": "function"
    },
    {
      "inputs": [
        {
          "internalType": "address",
          "name": "from",
          "type": "address"
        },
        {
          "internalType": "address",
          "name": "to",
          "type": "address"
        },
        {
          "internalType": "uint256",
          "name": "tokenId",
          "type": "uint256"
        }
      ],
      "name": "transferFrom",
      "outputs": [],
      "stateMutability": "nonpayable",
      "type": "function"
    },
    {
      "inputs": [
        {
          "internalType": "string",
          "name": "url",
          "type": "string"
        }
      ],
      "name": "CreateNft",
      "outputs": [
        {
          "internalType": "uint256",
          "name": "",
          "type": "uint256"
        }
      ],
      "stateMutability": "nonpayable",
      "type": "function"
    },
    {
      "inputs": [
        {
          "internalType": "uint256",
          "name": "tokenId",
          "type": "uint256"
        }
      ],
      "name": "tokenURI",
      "outputs": [
        {
          "internalType": "string",
          "name": "",
          "type": "string"
        }
      ],
      "stateMutability": "view",
      "type": "function"
    }
  ],
  "bytecode": "0x60806040523480156200001157600080fd5b506040518060400160405280600581526020017f4d794e46540000000000000000000000000000000000000000000000000000008152506040518060400160405280600481526020017f4d4e465400000000000000000000000000000000000000000000000000000000815250816000908051906020019062000096929190620000b8565b508060019080519060200190620000af929190620000b8565b505050620001cd565b828054620000c69062000168565b90600052602060002090601f016020900481019282620000ea576000855562000136565b82601f106200010557805160ff191683800117855562000136565b8280016001018555821562000136579182015b828111156200013557825182559160200191906001019062000118565b5b50905062000145919062000149565b5090565b5b80821115620001645760008160009055506001016200014a565b5090565b600060028204905060018216806200018157607f821691505b602082108114156200019857620001976200019e565b5b50919050565b7f4e487b7100000000000000000000000000000000000000000000000000000000600052602260045260246000fd5b6128d380620001dd6000396000f3fe608060405234801561001057600080fd5b5060043610610112576000357c0100000000000000000000000000000000000000000000000000000000900480636352211e116100b4578063b88d4fde11610083578063b88d4fde146102b3578063bfb231d2146102cf578063c87b56dd14610301578063e985e9c51461033157610112565b80636352211e1461021957806370a082311461024957806395d89b4114610279578063a22cb4651461029757610112565b8063095ea7b3116100f0578063095ea7b31461019557806323b872dd146101b1578063278164f6146101cd57806342842e0e146101fd57610112565b806301ffc9a71461011757806306fdde0314610147578063081812fc14610165575b600080fd5b610131600480360381019061012c9190611b37565b610361565b60405161013e9190611ef7565b60405180910390f35b61014f610443565b60405161015c9190611f12565b60405180910390f35b61017f600480360381019061017a9190611bda565b6104d5565b60405161018c9190611e90565b60405180910390f35b6101af60048036038101906101aa9190611af7565b61055a565b005b6101cb60048036038101906101c691906119e1565b610672565b005b6101e760048036038101906101e29190611b91565b6106d2565b6040516101f491906120f4565b60405180910390f35b610217600480360381019061021291906119e1565b6107b4565b005b610233600480360381019061022e9190611bda565b6107d4565b6040516102409190611e90565b60405180910390f35b610263600480360381019061025e9190611974565b610886565b60405161027091906120f4565b60405180910390f35b61028161093e565b60405161028e9190611f12565b60405180910390f35b6102b160048036038101906102ac9190611ab7565b6109d0565b005b6102cd60048036038101906102c89190611a34565b610b51565b005b6102e960048036038101906102e49190611bda565b610bb3565b6040516102f89392919061210f565b60405180910390f35b61031b60048036038101906103169190611bda565b610c85565b6040516103289190611f12565b60405180910390f35b61034b600480360381019061034691906119a1565b610d75565b6040516103589190611ef7565b60405180910390f35b60007f80ac58cd000000000000000000000000000000000000000000000000000000007bffffffffffffffffffffffffffffffffffffffffffffffffffffffff1916827bffffffffffffffffffffffffffffffffffffffffffffffffffffffff1916148061042c57507f5b5e139f000000000000000000000000000000000000000000000000000000007bffffffffffffffffffffffffffffffffffffffffffffffffffffffff1916827bffffffffffffffffffffffffffffffffffffffffffffffffffffffff1916145b8061043c575061043b82610e09565b5b9050919050565b6060600080546104529061234c565b80601f016020809104026020016040519081016040528092919081815260200182805461047e9061234c565b80156104cb5780601f106104a0576101008083540402835291602001916104cb565b820191906000526020600020905b8154815290600101906020018083116104ae57829003601f168201915b5050505050905090565b60006104e082610e73565b61051f576040517f08c379a000000000000000000000000000000000000000000000000000000000815260040161051690612054565b60405180910390fd5b6004600083815260200190815260200160002060009054906101000a900473ffffffffffffffffffffffffffffffffffffffff169050919050565b6000610565826107d4565b90508073ffffffffffffffffffffffffffffffffffffffff168373ffffffffffffffffffffffffffffffffffffffff1614156105d6576040517f08c379a00000000000000000000000000000000000000000000000000000000081526004016105cd906120b4565b60405180910390fd5b8073ffffffffffffffffffffffffffffffffffffffff166105f5610edf565b73ffffffffffffffffffffffffffffffffffffffff16148061062457506106238161061e610edf565b610d75565b5b610663576040517f08c379a000000000000000000000000000000000000000000000000000000000815260040161065a90611fd4565b60405180910390fd5b61066d8383610ee7565b505050565b61068361067d610edf565b82610fa0565b6106c2576040517f08c379a00000000000000000000000000000000000000000000000000000000081526004016106b9906120d4565b60405180910390fd5b6106cd83838361107e565b505050565b60006106de60066112da565b60006106ea60066112f0565b90506106f633826112fe565b60405180606001604052808281526020013373ffffffffffffffffffffffffffffffffffffffff16815260200184815250600760008381526020019081526020016000206000820151816000015560208201518160010160006101000a81548173ffffffffffffffffffffffffffffffffffffffff021916908373ffffffffffffffffffffffffffffffffffffffff16021790555060408201518160020190805190602001906107a7929190611788565b5090505080915050919050565b6107cf83838360405180602001604052806000815250610b51565b505050565b6000806002600084815260200190815260200160002060009054906101000a900473ffffffffffffffffffffffffffffffffffffffff169050600073ffffffffffffffffffffffffffffffffffffffff168173ffffffffffffffffffffffffffffffffffffffff16141561087d576040517f08c379a000000000000000000000000000000000000000000000000000000000815260040161087490612014565b60405180910390fd5b80915050919050565b60008073ffffffffffffffffffffffffffffffffffffffff168273ffffffffffffffffffffffffffffffffffffffff1614156108f7576040517f08c379a00000000000000000000000000000000000000000000000000000000081526004016108ee90611ff4565b60405180910390fd5b600360008373ffffffffffffffffffffffffffffffffffffffff1673ffffffffffffffffffffffffffffffffffffffff168152602001908152602001600020549050919050565b60606001805461094d9061234c565b80601f01602080910402602001604051908101604052809291908181526020018280546109799061234c565b80156109c65780601f1061099b576101008083540402835291602001916109c6565b820191906000526020600020905b8154815290600101906020018083116109a957829003601f168201915b5050505050905090565b6109d8610edf565b73ffffffffffffffffffffffffffffffffffffffff168273ffffffffffffffffffffffffffffffffffffffff161415610a46576040517f08c379a0000000000000000000000000000000000000000000000000000000008152600401610a3d90611f94565b60405180910390fd5b8060056000610a53610edf565b73ffffffffffffffffffffffffffffffffffffffff1673ffffffffffffffffffffffffffffffffffffffff16815260200190815260200160002060008473ffffffffffffffffffffffffffffffffffffffff1673ffffffffffffffffffffffffffffffffffffffff16815260200190815260200160002060006101000a81548160ff0219169083151502179055508173ffffffffffffffffffffffffffffffffffffffff16610b00610edf565b73ffffffffffffffffffffffffffffffffffffffff167f17307eab39ab6107e8899845ad3d59bd9653f200f220920489ca2b5937696c3183604051610b459190611ef7565b60405180910390a35050565b610b62610b5c610edf565b83610fa0565b610ba1576040517f08c379a0000000000000000000000000000000000000000000000000000000008152600401610b98906120d4565b60405180910390fd5b610bad8484848461131c565b50505050565b60076020528060005260406000206000915090508060000154908060010160009054906101000a900473ffffffffffffffffffffffffffffffffffffffff1690806002018054610c029061234c565b80601f0160208091040260200160405190810160405280929190818152602001828054610c2e9061234c565b8015610c7b5780601f10610c5057610100808354040283529160200191610c7b565b820191906000526020600020905b815481529060010190602001808311610c5e57829003601f168201915b5050505050905083565b6060610c9082610e73565b610ccf576040517f08c379a0000000000000000000000000000000000000000000000000000000008152600401610cc690612094565b60405180910390fd5b600760008381526020019081526020016000206002018054610cf09061234c565b80601f0160208091040260200160405190810160405280929190818152602001828054610d1c9061234c565b8015610d695780601f10610d3e57610100808354040283529160200191610d69565b820191906000526020600020905b815481529060010190602001808311610d4c57829003601f168201915b50505050509050919050565b6000600560008473ffffffffffffffffffffffffffffffffffffffff1673ffffffffffffffffffffffffffffffffffffffff16815260200190815260200160002060008373ffffffffffffffffffffffffffffffffffffffff1673ffffffffffffffffffffffffffffffffffffffff16815260200190815260200160002060009054906101000a900460ff16905092915050565b60007f01ffc9a7000000000000000000000000000000000000000000000000000000007bffffffffffffffffffffffffffffffffffffffffffffffffffffffff1916827bffffffffffffffffffffffffffffffffffffffffffffffffffffffff1916149050919050565b60008073ffffffffffffffffffffffffffffffffffffffff166002600084815260200190815260200160002060009054906101000a900473ffffffffffffffffffffffffffffffffffffffff1673ffffffffffffffffffffffffffffffffffffffff1614159050919050565b600033905090565b816004600083815260200190815260200160002060006101000a81548173ffffffffffffffffffffffffffffffffffffffff021916908373ffffffffffffffffffffffffffffffffffffffff160217905550808273ffffffffffffffffffffffffffffffffffffffff16610f5a836107d4565b73ffffffffffffffffffffffffffffffffffffffff167f8c5be1e5ebec7d5bd14f71427d1e84f3dd0314c0f7b2291e5b200ac8c7c3b92560405160405180910390a45050565b6000610fab82610e73565b610fea576040517f08c379a0000000000000000000000000000000000000000000000000000000008152600401610fe190611fb4565b60405180910390fd5b6000610ff5836107d4565b90508073ffffffffffffffffffffffffffffffffffffffff168473ffffffffffffffffffffffffffffffffffffffff16148061106457508373ffffffffffffffffffffffffffffffffffffffff1661104c846104d5565b73ffffffffffffffffffffffffffffffffffffffff16145b8061107557506110748185610d75565b5b91505092915050565b8273ffffffffffffffffffffffffffffffffffffffff1661109e826107d4565b73ffffffffffffffffffffffffffffffffffffffff16146110f4576040517f08c379a00000000000000000000000000000000000000000000000000000000081526004016110eb90612074565b60405180910390fd5b600073ffffffffffffffffffffffffffffffffffffffff168273ffffffffffffffffffffffffffffffffffffffff161415611164576040517f08c379a000000000000000000000000000000000000000000000000000000000815260040161115b90611f74565b60405180910390fd5b61116f838383611378565b61117a600082610ee7565b6001600360008573ffffffffffffffffffffffffffffffffffffffff1673ffffffffffffffffffffffffffffffffffffffff16815260200190815260200160002060008282546111ca9190612262565b925050819055506001600360008473ffffffffffffffffffffffffffffffffffffffff1673ffffffffffffffffffffffffffffffffffffffff1681526020019081526020016000206000828254611221919061220c565b92505081905550816002600083815260200190815260200160002060006101000a81548173ffffffffffffffffffffffffffffffffffffffff021916908373ffffffffffffffffffffffffffffffffffffffff160217905550808273ffffffffffffffffffffffffffffffffffffffff168473ffffffffffffffffffffffffffffffffffffffff167fddf252ad1be2c89b69c2b068fc378daa952ba7f163c4a11628f55a4df523b3ef60405160405180910390a4505050565b6001816000016000828254019250508190555050565b600081600001549050919050565b61131882826040518060200160405280600081525061137d565b5050565b61132784848461107e565b611333848484846113d8565b611372576040517f08c379a000000000000000000000000000000000000000000000000000000000815260040161136990611f34565b60405180910390fd5b50505050565b505050565b61138783836115a7565b61139460008484846113d8565b6113d3576040517f08c379a00000000000000000000000000000000000000000000000000000000081526004016113ca90611f34565b60405180910390fd5b505050565b60006113f98473ffffffffffffffffffffffffffffffffffffffff16611775565b1561159a578373ffffffffffffffffffffffffffffffffffffffff1663150b7a02611422610edf565b8786866040518563ffffffff167c01000000000000000000000000000000000000000000000000000000000281526004016114609493929190611eab565b602060405180830381600087803b15801561147a57600080fd5b505af19250505080156114ab57506040513d601f19601f820116820180604052508101906114a89190611b64565b60015b61152e573d80600081146114db576040519150601f19603f3d011682016040523d82523d6000602084013e6114e0565b606091505b50600081511415611526576040517f08c379a000000000000000000000000000000000000000000000000000000000815260040161151d90611f34565b60405180910390fd5b805181602001fd5b63150b7a027c0100000000000000000000000000000000000000000000000000000000027bffffffffffffffffffffffffffffffffffffffffffffffffffffffff1916817bffffffffffffffffffffffffffffffffffffffffffffffffffffffff19161491505061159f565b600190505b949350505050565b600073ffffffffffffffffffffffffffffffffffffffff168273ffffffffffffffffffffffffffffffffffffffff161415611617576040517f08c379a000000000000000000000000000000000000000000000000000000000815260040161160e90612034565b60405180910390fd5b61162081610e73565b15611660576040517f08c379a000000000000000000000000000000000000000000000000000000000815260040161165790611f54565b60405180910390fd5b61166c60008383611378565b6001600360008473ffffffffffffffffffffffffffffffffffffffff1673ffffffffffffffffffffffffffffffffffffffff16815260200190815260200160002060008282546116bc919061220c565b92505081905550816002600083815260200190815260200160002060006101000a81548173ffffffffffffffffffffffffffffffffffffffff021916908373ffffffffffffffffffffffffffffffffffffffff160217905550808273ffffffffffffffffffffffffffffffffffffffff16600073ffffffffffffffffffffffffffffffffffffffff167fddf252ad1be2c89b69c2b068fc378daa952ba7f163c4a11628f55a4df523b3ef60405160405180910390a45050565b600080823b905060008111915050919050565b8280546117949061234c565b90600052602060002090601f0160209004810192826117b657600085556117fd565b82601f106117cf57805160ff19168380011785556117fd565b828001600101855582156117fd579182015b828111156117fc5782518255916020019190600101906117e1565b5b50905061180a919061180e565b5090565b5b8082111561182757600081600090555060010161180f565b5090565b600061183e61183984612172565b61214d565b90508281526020810184848401111561185a57611859612441565b5b61186584828561230a565b509392505050565b600061188061187b846121a3565b61214d565b90508281526020810184848401111561189c5761189b612441565b5b6118a784828561230a565b509392505050565b6000813590506118be81612841565b92915050565b6000813590506118d381612858565b92915050565b6000813590506118e88161286f565b92915050565b6000815190506118fd8161286f565b92915050565b600082601f8301126119185761191761243c565b5b813561192884826020860161182b565b91505092915050565b600082601f8301126119465761194561243c565b5b813561195684826020860161186d565b91505092915050565b60008135905061196e81612886565b92915050565b60006020828403121561198a5761198961244b565b5b6000611998848285016118af565b91505092915050565b600080604083850312156119b8576119b761244b565b5b60006119c6858286016118af565b92505060206119d7858286016118af565b9150509250929050565b6000806000606084860312156119fa576119f961244b565b5b6000611a08868287016118af565b9350506020611a19868287016118af565b9250506040611a2a8682870161195f565b9150509250925092565b60008060008060808587031215611a4e57611a4d61244b565b5b6000611a5c878288016118af565b9450506020611a6d878288016118af565b9350506040611a7e8782880161195f565b925050606085013567ffffffffffffffff811115611a9f57611a9e612446565b5b611aab87828801611903565b91505092959194509250565b60008060408385031215611ace57611acd61244b565b5b6000611adc858286016118af565b9250506020611aed858286016118c4565b9150509250929050565b60008060408385031215611b0e57611b0d61244b565b5b6000611b1c858286016118af565b9250506020611b2d8582860161195f565b9150509250929050565b600060208284031215611b4d57611b4c61244b565b5b6000611b5b848285016118d9565b91505092915050565b600060208284031215611b7a57611b7961244b565b5b6000611b88848285016118ee565b91505092915050565b600060208284031215611ba757611ba661244b565b5b600082013567ffffffffffffffff811115611bc557611bc4612446565b5b611bd184828501611931565b91505092915050565b600060208284031215611bf057611bef61244b565b5b6000611bfe8482850161195f565b91505092915050565b611c1081612296565b82525050565b611c1f816122a8565b82525050565b6000611c30826121d4565b611c3a81856121ea565b9350611c4a818560208601612319565b611c5381612450565b840191505092915050565b6000611c69826121df565b611c7381856121fb565b9350611c83818560208601612319565b611c8c81612450565b840191505092915050565b6000611ca46032836121fb565b9150611caf82612461565b604082019050919050565b6000611cc7601c836121fb565b9150611cd2826124b0565b602082019050919050565b6000611cea6024836121fb565b9150611cf5826124d9565b604082019050919050565b6000611d0d6019836121fb565b9150611d1882612528565b602082019050919050565b6000611d30602c836121fb565b9150611d3b82612551565b604082019050919050565b6000611d536038836121fb565b9150611d5e826125a0565b604082019050919050565b6000611d76602a836121fb565b9150611d81826125ef565b604082019050919050565b6000611d996029836121fb565b9150611da48261263e565b604082019050919050565b6000611dbc6020836121fb565b9150611dc78261268d565b602082019050919050565b6000611ddf602c836121fb565b9150611dea826126b6565b604082019050919050565b6000611e026029836121fb565b9150611e0d82612705565b604082019050919050565b6000611e25602f836121fb565b9150611e3082612754565b604082019050919050565b6000611e486021836121fb565b9150611e53826127a3565b604082019050919050565b6000611e6b6031836121fb565b9150611e76826127f2565b604082019050919050565b611e8a81612300565b82525050565b6000602082019050611ea56000830184611c07565b92915050565b6000608082019050611ec06000830187611c07565b611ecd6020830186611c07565b611eda6040830185611e81565b8181036060830152611eec8184611c25565b905095945050505050565b6000602082019050611f0c6000830184611c16565b92915050565b60006020820190508181036000830152611f2c8184611c5e565b905092915050565b60006020820190508181036000830152611f4d81611c97565b9050919050565b60006020820190508181036000830152611f6d81611cba565b9050919050565b60006020820190508181036000830152611f8d81611cdd565b9050919050565b60006020820190508181036000830152611fad81611d00565b9050919050565b60006020820190508181036000830152611fcd81611d23565b9050919050565b60006020820190508181036000830152611fed81611d46565b9050919050565b6000602082019050818103600083015261200d81611d69565b9050919050565b6000602082019050818103600083015261202d81611d8c565b9050919050565b6000602082019050818103600083015261204d81611daf565b9050919050565b6000602082019050818103600083015261206d81611dd2565b9050919050565b6000602082019050818103600083015261208d81611df5565b9050919050565b600060208201905081810360008301526120ad81611e18565b9050919050565b600060208201905081810360008301526120cd81611e3b565b9050919050565b600060208201905081810360008301526120ed81611e5e565b9050919050565b60006020820190506121096000830184611e81565b92915050565b60006060820190506121246000830186611e81565b6121316020830185611c07565b81810360408301526121438184611c5e565b9050949350505050565b6000612157612168565b9050612163828261237e565b919050565b6000604051905090565b600067ffffffffffffffff82111561218d5761218c61240d565b5b61219682612450565b9050602081019050919050565b600067ffffffffffffffff8211156121be576121bd61240d565b5b6121c782612450565b9050602081019050919050565b600081519050919050565b600081519050919050565b600082825260208201905092915050565b600082825260208201905092915050565b600061221782612300565b915061222283612300565b9250827fffffffffffffffffffffffffffffffffffffffffffffffffffffffffffffffff03821115612257576122566123af565b5b828201905092915050565b600061226d82612300565b915061227883612300565b92508282101561228b5761228a6123af565b5b828203905092915050565b60006122a1826122e0565b9050919050565b60008115159050919050565b60007fffffffff0000000000000000000000000000000000000000000000000000000082169050919050565b600073ffffffffffffffffffffffffffffffffffffffff82169050919050565b6000819050919050565b82818337600083830152505050565b60005b8381101561233757808201518184015260208101905061231c565b83811115612346576000848401525b50505050565b6000600282049050600182168061236457607f821691505b60208210811415612378576123776123de565b5b50919050565b61238782612450565b810181811067ffffffffffffffff821117156123a6576123a561240d565b5b80604052505050565b7f4e487b7100000000000000000000000000000000000000000000000000000000600052601160045260246000fd5b7f4e487b7100000000000000000000000000000000000000000000000000000000600052602260045260246000fd5b7f4e487b7100000000000000000000000000000000000000000000000000000000600052604160045260246000fd5b600080fd5b600080fd5b600080fd5b600080fd5b6000601f19601f8301169050919050565b7f4552433732313a207472616e7366657220746f206e6f6e20455243373231526560008201527f63656976657220696d706c656d656e7465720000000000000000000000000000602082015250565b7f4552433732313a20746f6b656e20616c7265616479206d696e74656400000000600082015250565b7f4552433732313a207472616e7366657220746f20746865207a65726f2061646460008201527f7265737300000000000000000000000000000000000000000000000000000000602082015250565b7f4552433732313a20617070726f766520746f2063616c6c657200000000000000600082015250565b7f4552433732313a206f70657261746f7220717565727920666f72206e6f6e657860008201527f697374656e7420746f6b656e0000000000000000000000000000000000000000602082015250565b7f4552433732313a20617070726f76652063616c6c6572206973206e6f74206f7760008201527f6e6572206e6f7220617070726f76656420666f7220616c6c0000000000000000602082015250565b7f4552433732313a2062616c616e636520717565727920666f7220746865207a6560008201527f726f206164647265737300000000000000000000000000000000000000000000602082015250565b7f4552433732313a206f776e657220717565727920666f72206e6f6e657869737460008201527f656e7420746f6b656e0000000000000000000000000000000000000000000000602082015250565b7f4552433732313a206d696e7420746f20746865207a65726f2061646472657373600082015250565b7f4552433732313a20617070726f76656420717565727920666f72206e6f6e657860008201527f697374656e7420746f6b656e0000000000000000000000000000000000000000602082015250565b7f4552433732313a207472616e73666572206f6620746f6b656e2074686174206960008201527f73206e6f74206f776e0000000000000000000000000000000000000000000000602082015250565b7f4552433732314d657461646174613a2055524920717565727920666f72206e6f60008201527f6e6578697374656e7420746f6b656e0000000000000000000000000000000000602082015250565b7f4552433732313a20617070726f76616c20746f2063757272656e74206f776e6560008201527f7200000000000000000000000000000000000000000000000000000000000000602082015250565b7f4552433732313a207472616e736665722063616c6c6572206973206e6f74206f60008201527f776e6572206e6f7220617070726f766564000000000000000000000000000000602082015250565b61284a81612296565b811461285557600080fd5b50565b612861816122a8565b811461286c57600080fd5b50565b612878816122b4565b811461288357600080fd5b50565b61288f81612300565b811461289a57600080fd5b5056fea264697066735822122028af1df5ba85b2ec3ba046ae2a9729cf206def666961d9a7aab119003b142c6064736f6c63430008050033",
  "immutableReferences": {},
  "source": "// SPDX-License-Identifier: MIT\r\npragma solidity ^0.8.2;\r\n\r\nimport \"@openzeppelin/contracts/token/ERC721/ERC721.sol\";\r\nimport \"@openzeppelin/contracts/utils/Counters.sol\";\r\n\r\n\r\n\r\ncontract MyNFT is ERC721 {\r\n    using Counters for Counters.Counter;\r\n    Counters.Counter private _tokenIDs;\r\n    struct item {\r\n        uint256 id;\r\n        address creator ;\r\n        string url;\r\n    }\r\n    mapping ( uint256 => item) public items;\r\n    \r\n    constructor() ERC721(\"MyNFT\", \"MNFT\") {\r\n        \r\n    }\r\n    \r\n    function CreateNft(string memory url) public returns (uint256){\r\n        _tokenIDs.increment();\r\n        uint256 tokenId  = _tokenIDs.current();\r\n        _safeMint(msg.sender , tokenId);\r\n        \r\n        items[tokenId] = item(tokenId, msg.sender , url);\r\n        \r\n        return tokenId;\r\n        \r\n    } \r\n      function tokenURI(uint256 tokenId) public view  override returns (string memory) {\r\n        require(_exists(tokenId), \"ERC721Metadata: URI query for nonexistent token\");\r\n\r\n        return items[tokenId].url;\r\n        \r\n    }\r\n}",
  "sourcePath": "C:/Users/samuel/Dropbox/My PC (LAPTOP-H7J194TT)/Documents/blockchain/unick/contracts/unickNft.sol",
  "compiler": {
    "name": "solc",
    "version": "0.8.5+commit.a4f2e591.Emscripten.clang"
  },
  "schemaVersion": "3.4.1",
  "updatedAt": "2021-06-16T16:03:53.270Z",
  "devdoc": {
    "kind": "dev",
    "methods": {
      "approve(address,uint256)": {
        "details": "See {IERC721-approve}."
      },
      "balanceOf(address)": {
        "details": "See {IERC721-balanceOf}."
      },
      "getApproved(uint256)": {
        "details": "See {IERC721-getApproved}."
      },
      "isApprovedForAll(address,address)": {
        "details": "See {IERC721-isApprovedForAll}."
      },
      "name()": {
        "details": "See {IERC721Metadata-name}."
      },
      "ownerOf(uint256)": {
        "details": "See {IERC721-ownerOf}."
      },
      "safeTransferFrom(address,address,uint256)": {
        "details": "See {IERC721-safeTransferFrom}."
      },
      "safeTransferFrom(address,address,uint256,bytes)": {
        "details": "See {IERC721-safeTransferFrom}."
      },
      "setApprovalForAll(address,bool)": {
        "details": "See {IERC721-setApprovalForAll}."
      },
      "supportsInterface(bytes4)": {
        "details": "See {IERC165-supportsInterface}."
      },
      "symbol()": {
        "details": "See {IERC721Metadata-symbol}."
      },
      "tokenURI(uint256)": {
        "details": "See {IERC721Metadata-tokenURI}."
      },
      "transferFrom(address,address,uint256)": {
        "details": "See {IERC721-transferFrom}."
      }
    },
    "version": 1
  },
  "userdoc": {
    "kind": "user",
    "methods": {},
    "version": 1
  }
}